:100000000C942A000C9434000C9434000C943400AA
:100010000C9434000C9434000C9434000C94340090
:100020000C9434000C9434000C9434000C94340080
:100030000C9434000C9434000C9434000C94340070
:100040000C9434000C9434000C9434000C94340060
:100050000C94340011241FBECFE5D8E0DEBFCDBF25
:100060000E947A010C94FB010C9400004130A1F530
:10007000813089F028F08230C9F0833011F1089581
:100080002AB381E090E002C0880F991F6A95E2F7D9
:10009000822B8ABB089527B381E090E002C0880FCD
:1000A000991F6A95E2F7822B87BB089524B381E0FC
:1000B00090E002C0880F991F6A95E2F7822B84BBFB
:1000C000089521B381E090E002C0880F991F6A95DE
:1000D000E2F7822B81BB0895411137C0813091F046
:1000E00028F08230D9F0833029F108952AB381E0D5
:1000F00090E002C0880F991F6A95E2F780958223ED
:100100008ABB089527B381E090E002C0880F991F51
:100110006A95E2F78095822387BB089524B381E036
:1001200090E002C0880F991F6A95E2F780958223BC
:1001300084BB089521B381E090E002C0880F991F2D
:100140006A95E2F78095822381BB08954130A1F53D
:10015000813089F028F08230C9F0833011F10895A0
:100160002BB381E090E002C0880F991F6A95E2F7F7
:10017000822B8BBB089528B381E090E002C0880FEA
:10018000991F6A95E2F7822B88BB089525B381E019
:1001900090E002C0880F991F6A95E2F7822B85BB19
:1001A000089522B381E090E002C0880F991F6A95FC
:1001B000E2F7822B82BB0895411137C0813091F064
:1001C00028F08230D9F0833029F108952BB381E0F3
:1001D00090E002C0880F991F6A95E2F7809582230C
:1001E0008BBB089528B381E090E002C0880F991F6F
:1001F0006A95E2F78095822388BB089525B381E054
:1002000090E002C0880F991F6A95E2F780958223DB
:1002100085BB089522B381E090E002C0880F991F4A
:100220006A95E2F78095822382BB0895813079F048
:1002300028F08230A9F08330E1F024C089B390E047
:1002400002C0959587956A95E2F78170089586B307
:1002500090E002C0959587956A95E2F781700895C0
:1002600083B390E002C0959587956A95E2F7817017
:10027000089580B390E002C0959587956A95E2F75E
:100280008170089580E00895413099F5813089F0BA
:1002900028F08230C9F0833011F108952BB381E04A
:1002A00090E002C0880F991F6A95E2F7822B8BBB02
:1002B000089528B381E090E002C0880F991F6A95E5
:1002C000E2F7822B88BB089525B381E090E002C05D
:1002D000880F991F6A95E2F7822B85BB089522B398
:1002E00081E090E002C0880F991F6A95E2F7822BA7
:1002F00082BB089540E060E080E00E94360040E06C
:1003000061E080E00E94360040E062E080E00E9410
:10031000360040E060E081E00E94360041E060E0AD
:1003200082E00E94360041E061E082E00E943600F7
:1003300041E062E082E00E94360041E060E080E05F
:100340000E94440141E061E080E00E94440141E0FC
:1003500062E080E00E94440141E060E081E00E94B0
:10036000440160E081E00E941601811110C041E06B
:1003700060E082E00E94A60041E061E082E00E942D
:10038000A60041E062E082E00E94A600EACF60E0C1
:1003900080E00E941601811106C041E060E082E029
:1003A0000E94A60005C040E060E082E00E94A60036
:1003B00061E080E00E941601811106C041E061E029
:1003C00082E00E94A60005C040E061E082E00E9459
:1003D000A60062E080E00E941601811106C041E0A3
:1003E00062E082E00E94A600BCCF40E062E082E0D2
:0A03F0000E94A600B6CFF894FFCFDC
:00000001FF
